:0400140002080000DE
:1000EA00D3EF9400EE94004015E4FDFC0DBD000131
:0E00FA000CED647D4C70F5EF1F70E51E80E28A
:0101080022D4
:10000300758960758DF0758BF0D2AFD2ABD28E80CF
:01001300FEEE
:03001B000200AA36
:1000AA00C0E0C0D075D000C004C005C006C007E5D6
:1000BA0009640F45087014F5907FF47E011200EA76
:1000CA007590FF75080075090080080509E5097033
:1000DA00020508D007D006D005D004D0D0D0E0322F
:0300000002001EDD
:0C001E00787FE4F6D8FD758109020065CA
:10002A00020003E493A3F8E493A34003F68001F2E9
:10003A0008DFF48029E493A3F85407240CC8C333D7
:10004A00C4540F4420C8834004F456800146F6DFA6
:10005A00E4800B0102040810204080900014E47E22
:10006A00019360BCA3FF543F30E509541FFEE4939B
:10007A00A360010ECF54C025E060A840B8E493A362
:10008A00FAE493A3F8E493A3C8C582C8CAC583CA8D
:10009A00F0A3C8C582C8CAC583CADFE9DEE780BE45
:0100180000E7
:00000001FF
