:0400140002080000DE
:1000E900D3EF9400EE94004015E4FDFC0DBD000132
:0E00F9000CED647D4C70F5EF1F70E51E80E28B
:0101070022D5
:10000300758960758DF0758BF0D2AFD2ABD28E80CF
:01001300FEEE
:03001B000200AA36
:1000AA00C0E0C0D075D000C004C005C006C007E5D6
:1000BA0009640F45087013F5907F32FE1200E97546
:1000CA0090FF75080075090080080509E5097002A6
:0F00DA000508D007D006D005D004D0D0D0E03232
:0300000002001EDD
:0C001E00787FE4F6D8FD758109020065CA
:10002A00020003E493A3F8E493A34003F68001F2E9
:10003A0008DFF48029E493A3F85407240CC8C333D7
:10004A00C4540F4420C8834004F456800146F6DFA6
:10005A00E4800B0102040810204080900014E47E22
:10006A00019360BCA3FF543F30E509541FFEE4939B
:10007A00A360010ECF54C025E060A840B8E493A362
:10008A00FAE493A3F8E493A3C8C582C8CAC583CA8D
:10009A00F0A3C8C582C8CAC583CADFE9DEE780BE45
:0100180000E7
:00000001FF
