:0E017200B5B1C7B0D7AACBD920C3BFC3EB002D
:0301800001081063
:10014E00C2A6C2A5C2A700008F800000D2A70000E1
:03015E00C2A72213
:0700E20012014E7F057E00B4
:1000E900D3EF9400EE940040147D6E7C00ED1D70FA
:0D00F900011CED4C70F7EF1F70E61E80E358
:0101060022D6
:10016100D2A6C2A5C2A700008F80D2A70000C2A755
:01017100226B
:10008F00AE07EDD39403748094805046EE940774BA
:10009F00809480503DED14600F1460111460132490
:1000AF00037016EE2480800DEE24908008EE2488D5
:1000BF008003EE2498FF12014E120107FFD3940024
:1000CF0074809480400C120161740129F9E43AFAAA
:0300DF0080E72295
:10012000D2B27F301200E27F0C1200E27F01120196
:080130004E7F057E000200E98C
:100138001201207BFF7A017972E4FDFF12008F7FA4
:06014800C87E000200E980
:03000000020003F8
:0C000300787FE4F6D8FD75810802004A01
:10010700BB010689828A83E0225002E722BBFE02F6
:09011700E32289828A83E4932229
:10000F00020138E493A3F8E493A34003F68001F2CE
:10001F0008DFF48029E493A3F85407240CC8C333F2
:10002F00C4540F4420C8834004F456800146F6DFC1
:10003F00E4800B0102040810204080900180E47ED0
:10004F00019360BCA3FF543F30E509541FFEE493B6
:10005F00A360010ECF54C025E060A840B8E493A37D
:10006F00FAE493A3F8E493A3C8C582C8CAC583CAA8
:10007F00F0A3C8C582C8CAC583CADFE9DEE780BE60
:01018300007B
:00000001FF
